:10002600D2AFE4F596F595C201D2001200037F1116
:100036001203087F221203081202D8AFA0EF650F41
:100046007002E50E60F512031EAFA0EF650F700299
:10005600E50E60E7AFA0750E008F0FE50E60030298
:100066000106E50F1202B200411F00412F00FC7F7E
:1000760001018700F2BF00EED700EEDB00EEDD00E7
:10008600EEDE00EEDF00EAE700EAEB00EAED00EA6A
:10009600EE00EAEF00DDF700D0FB00C3FD00B6FE80
:1000A60000ADFF00000106E4FF120197D200808B2D
:1000B6003000057F01120197D20002004130000591
:1000C6007F02120197D2000200413000057F031221
:1000D6000197D2000200413000057F04120197D239
:1000E600000200417F0580067F0680027F0712011D
:1000F60097C200020041C200020041C20102004153
:05010600D200020041DF
:1002F1008E0C8F0D7F5A120308E50CFF120308AF15
:070301000D1203080202D8EF
:10019700EFB4080050639001A4F82828730201BC4B
:1001A7000201C30201CB0201D30201DB0201E30218
:1001B70001EB0201F5E4F50BFBFD8038E4F50BFBE1
:1001C7007D018030E4F50BFB7D028028E4F50BFB15
:1001D7007D038020E4F50BFB7D048018E4F50BFB21
:1001E7007DCD8006E4F50BFB7DCE7F018008E4F52D
:0A01F7000BFB7D057F02120281223E
:100281008F088D098B0A7F551203087FAA12030874
:10029100AF08120308AF09120308AF0A120308AF2F
:1002A1000B1203087FAA1203087F551203080202EA
:0102B100D874
:0E031E0000007F017ED87D23DDFEDEFCDFFACD
:01032C0022AE
:0B032D00410000004100010001180029
:10000300759850438E40538EFE53890F758BD07570
:0D0013008DFFC2ABD28ED2ACD2AFC2B322F1
:10030800900000E02403F582E43400F583EFF090D8
:060318000000E004F022E9
:1002D800900000E0601214F0E4A3F0E02403F5823B
:0902E800E43400F583E0F59922ED
:03002300020201D5
:10020100C0E0C0F0C083C082C0D075D01030980D5E
:10021100900002E599F0E0FF120247C29830991B65
:10022100900000E0601314F0A3E004F0E02403F573
:1002310082E43400F583E0F599C299D0D0D082D020
:0602410083D0F0D0E03292
:10024700E51814600C04702EEF24A67027751801AA
:1002570022EF24FD6010146013146014240370143B
:10026700C2B3C201800ED2B3D2018008C2B38006E6
:0A027700D2B380028000E4F51822E3
:0300000002010BEF
:0C010B00787FE4F6D8FD758120020152D7
:1002B200D083D082F8E4937012740193700DA3A3DB
:1002C20093F8740193F5828883E4737402936860EF
:0602D200EFA3A3A380DFEF
:10011700020026E493A3F8E493A34003F68001F2D8
:1001270008DFF48029E493A3F85407240CC8C333E9
:10013700C4540F4420C8834004F456800146F6DFB8
:10014700E4800B010204081020408090032DE47E18
:10015700019360BCA3FF543F30E509541FFEE493AD
:10016700A360010ECF54C025E060A840B8E493A374
:10017700FAE493A3F8E493A3C8C582C8CAC583CA9F
:10018700F0A3C8C582C8CAC583CADFE9DEE780BE57
:0103380000C4
:00000001FF
