:10002600D2AFE4F596F595C201D2001200037F1116
:100036001203107F221203101202E0AFA0EF650F29
:100046007002E50E60F5120326AFA0EF650F700291
:10005600E50E60E7AFA01203101202E0AFA0750E26
:10006600008F0FE50E600302010EE50F1202BA00C3
:10007600411F00412F01047F01098700FABF00F6E6
:10008600D700F6DB00F6DD00F6DE00F6DF00F2E76D
:1000960000F2EB00F2ED00F2EE00F2EF00E5F70001
:1000A600D8FB00CBFD00BEFE00B5FF0000010EE44C
:1000B600FF12019FD20080833000057F0112019F4D
:1000C600D2000200413000057F0212019FD20002D9
:1000D60000413000057F0312019FD200020041302B
:1000E60000057F0412019FD2000200417F058006B1
:1000F6007F0680027F0712019FC200020041C200F4
:0D010600020041C201020041D2000200418E
:1002F9008E0C8F0D7F5A120310E50CFF120310AFFD
:070309000D1203100202E0D7
:10019F00EFB4080050639001ACF82828730201C433
:1001AF000201CB0201D30201DB0201E30201EB02E8
:1001BF0001F30201FDE4F50BFBFD8038E4F50BFBC9
:1001CF007D018030E4F50BFB7D028028E4F50BFB0D
:1001DF007D038020E4F50BFB7D048018E4F50BFB19
:1001EF007DCD8006E4F50BFB7DCE7F018008E4F525
:0A01FF000BFB7D057F02120289222E
:100289008F088D098B0A7F551203107FAA1203105C
:10029900AF08120310AF09120310AF0A120310AF0F
:1002A9000B1203107FAA1203107F551203100202CA
:0102B900E064
:0E03260000007F017ED87D23DDFEDEFCDFFAC5
:0103340022A6
:0B033500410000004100010001180021
:10000300759850438E40538EFE53890F758BD07570
:0D0013008DFFC2ABD28ED2ACD2AFC2B322F1
:10031000900000E02403F582E43400F583EFF090D0
:060320000000E004F022E1
:1002E000900000E0601214F0E4A3F0E02403F58233
:0902F000E43400F583E0F59922E5
:03002300020209CD
:10020900C0E0C0F0C083C082C0D075D01030980D56
:10021900900002E599F0E0FF12024FC29830991B55
:10022900900000E0601314F0A3E004F0E02403F56B
:1002390082E43400F583E0F599C299D0D0D082D018
:0602490083D0F0D0E0328A
:10024F00E51814600C04702EEF24A67027751801A2
:10025F0022EF24FD60101460131460142403701433
:10026F00C2B3C201800ED2B3D2018008C2B38006DE
:0A027F00D2B380028000E4F51822DB
:03000000020113E7
:0C011300787FE4F6D8FD75812002015AC7
:1002BA00D083D082F8E4937012740193700DA3A3D3
:1002CA0093F8740193F5828883E4737402936860E7
:0602DA00EFA3A3A380DFE7
:10011F00020026E493A3F8E493A34003F68001F2D0
:10012F0008DFF48029E493A3F85407240CC8C333E1
:10013F00C4540F4420C8834004F456800146F6DFB0
:10014F00E4800B0102040810204080900335E47E08
:10015F00019360BCA3FF543F30E509541FFEE493A5
:10016F00A360010ECF54C025E060A840B8E493A36C
:10017F00FAE493A3F8E493A3C8C582C8CAC583CA97
:10018F00F0A3C8C582C8CAC583CADFE9DEE780BE4F
:0103400000BC
:00000001FF
